S01400004D696E692050726F6A6563742E737265638C
S113000045C0000060C000005EC000005CC000008D
S11300105AC0000058C0000056C0000054C0000080
S113002052C0000050C000004EC000004CC0000090
S11300304AC0000048C0000046C0000044C00000A0
S113004042C0000040C000003EC000003CC00000B0
S11300503AC0000038C0000036C0000034C00000C0
S113006032C0000030C000002EC000002CC00000D0
S11300702AC0000028C0000026C0000024C00000E0
S113008022C0000020C000001EC0000011241FBEBA
S1130090CFEFD0E1DEBFCDBF11E0A0E0B1E0EAEFE9
S11300A0F4E000E00BBF02C007900D92A435B10745
S11300B0D9F721E0A4E5B1E001C01D92AB35B20748
S11300C0E1F7ABD118C29CCFE5E6F0E090819160F6
S11300D0908390819D7F908390819460908390E140
S11300E09A95F1F700C08BBB80E18A95F1F700C0C7
S11300F080818B7F80830895E5E6F0E090819E7F88
S1130100908390819D7F908390819460908390E10F
S11301109A95F1F700C08BBB80E18A95F1F700C096
S113012080818B7F80830895CFDF89EF90E00197F2
S1130130F1F700C000000895CF93DF93EC0102C0F3
S1130140F3DF219688818111FBCFDF91CF91089550
S113015090E4899F600D1124862F8068CDDF83ECA5
S113016099E00197F1F700C00000089581E0C4DF31
S113017083EC99E00197F1F700C00000089588E34B
S1130180BBDF83EF91E00197F1F700C0000088E343
S1130190B3DF83EF91E00197F1F700C0000088E33B
S11301A0ABDF83EF91E00197F1F700C000008CE032
S11301B0A3DF83EF91E00197F1F700C0000086E030
S11301C09BDF83EF91E00197F1F700C00000CECFF1
S11301D0089588EF84BB87E085BB089588E085BBDC
S11301E083E397E00197F1F783B38770813009F4D3
S11301F05DC083B38770823009F45AC083B38770BB
S1130200843009F457C08FEF97E40197F1F700C0E9
S1130210000080E185BB83E397E00197F1F783B3A6
S11302208770813009F448C083B38770823009F441
S113023045C083B38770843009F442C08FEF97E4DC
S11302400197F1F700C0000080E285BB83E397E0EB
S11302500197F1F783B387708130A1F183B387707D
S1130260823091F183B38770843081F18FEF97E40A
S11302700197F1F700C0000080E485BB83E397E0B9
S11302800197F1F783B38770813011F183B38770DD
S1130290823001F183B387708430F1F08FEF97E4FB
S11302A00197F1F700C0000080E0089581E308950C
S11302B082E3089583E3089584E3089585E308952C
S11302C086E3089587E3089588E3089589E308950C
S11302D08AE2089580E3089583E208957ADF7ECF69
S11302E008954DDF43DF60E080E032DF86E291E095
S11302F023DF60E081E02CDF86E391E01DDFEEDFA9
S11303008823D1F0E0915401F0E0EA5AFE4F808353
S11303106AE081E01DDF86E591E00EDF2FEF8FE7D5
S113032096E1215080409040E1F700C000008091A8
S113033054018F5F80935401089521DF17DF60E03B
S113034080E006DF86E491E0F7DE2FEF8FE796E1A9
S1130350215080409040E1F700C00000089580E102
S113036082BB2FEF8FE392E0215080409040E1F771
S113037000C0000080E282BB2FEF8FE392E02150A7
S113038080409040E1F700C0000080E482BB2FEF82
S11303908FE392E0215080409040E1F700C00000DC
S11303A080E882BB2FEF8FE392E0215080409040A1
S11303B0E1F700C00000D3CFE0915501F0E0EE0F6B
S11303C0FF1FEB5FFE4F2081318140E050E060E091
S11303D070E28CE190E048D0E0E8F0E031832083E3
S11303E080819181969587959695879590938300C2
S11303F080938200809155018F5F809355018430F2
S113040010F0109255012FEF8FE794E021508040B7
S11304109040E1F700C00000CFCF80EF81BB8FEFA9
S11304208ABB8FE08093640088E082B980E4809383
S11304308B0089E180938A0010928C0010928900CD
S1130440109288004EDF80915401843051F460E0B2
S113045071E086E591E046D0892B09F480DF6DDFF9
S1130460ABDF10925401EECF052E97FB16F40094E7
S11304700FD057FD05D014D007FC02D046F408C0B5
S113048050954095309521953F4F4F4F5F4F0895BC
S113049090958095709561957F4F8F4F9F4F0895EC
S11304A0A1E21A2EAA1BBB1BFD010DC0AA1FBB1F74
S11304B0EE1FFF1FA217B307E407F50720F0A21BE6
S11304C0B30BE40BF50B661F771F881F991F1A9453
S11304D069F760957095809590959B01AC01BD017D
S11304E0CF010895FB01DC018D9101908019011069
S10D04F0D9F3990B0895F894FFCF97
S11304FA31313131000B024B02930200000000003B
S113050A000000000050617373776F7264203E3EEE
S113051A3E20200D0A00446F6F726C6F636B207368
S113052A797374656D00496E736572742050573A15
S113053A006F70656E004572726F72206E756D621F
S107054A65720000D2
S9030000FC
