S00B00004C43442E7372656346
S113000045C0000058C0000056C0000054C00000A5
S113001052C0000050C000004EC000004CC00000A0
S11300204AC0000048C0000046C0000044C00000B0
S113003042C0000040C000003EC000003CC00000C0
S11300403AC0000038C0000036C0000034C00000D0
S113005032C0000030C000002EC000002CC00000E0
S11300602AC0000028C0000026C0000024C00000F0
S113007022C0000020C000001EC000001CC0000000
S11300801AC0000018C0000016C0000011241FBED2
S1130090CFEFD0E1DEBFCDBF11E0A0E0B1E0E8EBEF
S11300A0F2E000E00BBF02C007900D92A830B10748
S11300B0D9F787D0FFC0A4CFE5E6F0E09081916046
S11300C0908390819D7F908390819460908390E150
S11300D09A95F1F700C08BBB80E18A95F1F700C0D7
S11300E080818B7F80830895E5E6F0E090819E7F98
S11300F0908390819D7F908390819460908390E120
S11301009A95F1F700C08BBB80E18A95F1F700C0A6
S113011080818B7F80830895CFDF89EF90E0019702
S1130120F1F700C000000895CF93DF93EC0102C003
S1130130F3DF219688818111FBCFDF91CF91089560
S113014090E4899F600D1124862F8068CDDF81EEB5
S113015094E00197F1F700C00000089581E0C4DF46
S113016083EC99E00197F1F700C00000089588E35B
S1130170BBDF83EF91E00197F1F700C0000088E353
S1130180B3DF83EF91E00197F1F700C0000088E34B
S1130190ABDF83EF91E00197F1F700C000008CE042
S11301A0A3DF83EF91E00197F1F700C0000086E040
S11301B09BDF83EF91E00197F1F700C00000CECF01
S11301C00895CF93DF93CDB7DEB7E0970FB6F894D9
S11301D0DEBF0FBECDBF8FEF8ABB80936400C7DF45
S11301E0BDDFBCDF4AE050E0BE016F5E7F4F82E0BE
S11301F090E023D04AE050E0BE016F5D7F4F84E081
S113020090E01BD04AE050E0BE016F5F7F4F88E072
S113021090E013D060E080E093DFCE01419684DF6C
S113022080E091E081DFCE0181967EDF84E091E081
S11302307BDFCE01019678DFEDCF4532510518F40E
S1130240423008F004C0FB011082CB010895BB27A3
S11302504A3031F4992322F4BDE2909581959F4F61
S113026001C0BB27FB015527AA27880F991FAA1F86
S1130270A41710F0A41B83955051B9F7A05DAA33BD
S113028008F0A95DA193009779F7B111B193119288
S1130290CB0100C0DC01FC01672F71917723E1F7EA
S11302A0329704C07C916D9370836291AE17BF073F
S10B02B0C8F30895F894FFCF90
S10B02B8202A2000203D200053
S9030000FC
