S0130000496E7465727269707430322E73726563EE
S113000045C0000054C0000051C000004FC00000B3
S11300104DC000004BC0000049C0000047C00000B4
S113002045C0000043C0000041C000003FC00000C4
S11300303DC000003BC0000039C0000037C00000D4
S113004035C0000033C0000031C000002FC00000E4
S11300502DC000002BC0000029C0000027C00000F4
S113006025C0000023C0000021C000001FC0000004
S11300701DC000001BC0000019C0000017C0000014
S113008015C0000013C0000011C0000011241FBEE1
S1130090CFEFD0E1DEBFCDBF21E0A0E0B1E001C0F1
S11300A01D92A130B207E1F713D028C0A9CF1F9247
S11300B00F920FB60F9211248F93809100018F5FDE
S11300C0809300018F910F900FBE0F901F90189591
S11300D011BA8FEF8ABB81E089BF82E080936A0006
S11300E0789480910001982F917080FF03C081E083
S11300F08BBBF7CF9111F5CF1BBAF3CFF894FFCF99
S9030000FC
