S00C00004750494F2E73726563E9
S113000045C0000053C0000051C000004FC00000B4
S11300104DC000004CC0000049C0000047C00000B3
S113002045C0000043C0000041C000003FC00000C4
S11300303DC000003BC0000039C0000037C00000D4
S113004035C0000033C0000031C000002FC00000E4
S11300502DC000002BC0000029C0000027C00000F4
S113006025C0000023C0000021C000001FC0000004
S11300701DC000001BC0000019C0000017C0000014
S113008015C0000013C0000011C0000011241FBEE1
S1130090CFEFD0E1DEBFCDBF21E0A0E0B1E001C0F1
S11300A01D92A130B207E1F71AD037C0A9CF1F9231
S11300B00F920FB60F9211248F93F8948091000140
S11300C0811104C081E08093000102C010920001FC
S11300D078948F910F900FBE0F901F9018958FEF0B
S11300E08ABB12B883E080936A0082E089BF789467
S11300F081E08BBB90910001911105C0803811F013
S1130100880F01C081E02FEA34E492E021503040AE
S11101109040E1F700C00000ECCFF894FFCF60
S9030000FC
