:1000000045C0000060C000005EC000005CC0000091
:100010005AC0000058C0000056C0000054C0000084
:1000200052C0000050C000005FC000004CC0000083
:100030004AC0000048C0000046C0000044C00000A4
:1000400042C0000040C000003EC000003CC00000B4
:100050003AC0000038C0000036C0000034C00000C4
:1000600032C0000030C000002EC000002CC00000D4
:100070002AC0000028C0000026C0000024C00000E4
:1000800022C0000020C000001EC0000011241FBEBE
:10009000CFEFD0E1DEBFCDBF11E0A0E0B1E0E6E5FB
:1000A000F1E000E00BBF02C007900D92A230B10753
:1000B000D9F721E0A2E0B1E001C01D92A430B2075F
:1000C000E1F702D046C09CCF8FE084BB85E085BDC0
:1000D00088EB84BD80E487BF86B7806486BF789450
:1000E0008091000185BBFCCF1F920F920FB60F923B
:1000F00011248F93F89488EB84BD809103018F5F66
:10010000809303018233F9F48091020181110DC0C3
:1001100080910001880F8093000180910001883058
:1001200079F481E0809302010BC0809100018695F3
:100130008093000180910001813011F4109202013E
:100140001092030178948F910F900FBE0F901F9023
:060150001895F894FFCFA2
:020156000100A6
:00000001FF
